{
  "_format": "hh-sol-artifact-1",
  "contractName": "Greeter",
  "sourceName": "contracts/Greeter.sol",
  "abi": [
    {
      "inputs": [
        {
          "internalType": "address",
          "name": "semaphoreAddress",
          "type": "address"
        },
        {
          "internalType": "uint256",
          "name": "_groupId",
          "type": "uint256"
        }
      ],
      "stateMutability": "nonpayable",
      "type": "constructor"
    },
    {
      "anonymous": false,
      "inputs": [
        {
          "indexed": false,
          "internalType": "bytes32",
          "name": "greeting",
          "type": "bytes32"
        }
      ],
      "name": "NewGreeting",
      "type": "event"
    },
    {
      "anonymous": false,
      "inputs": [
        {
          "indexed": false,
          "internalType": "uint256",
          "name": "identityCommitment",
          "type": "uint256"
        },
        {
          "indexed": false,
          "internalType": "bytes32",
          "name": "username",
          "type": "bytes32"
        }
      ],
      "name": "NewUser",
      "type": "event"
    },
    {
      "inputs": [
        {
          "internalType": "bytes32",
          "name": "greeting",
          "type": "bytes32"
        },
        {
          "internalType": "uint256",
          "name": "merkleTreeRoot",
          "type": "uint256"
        },
        {
          "internalType": "uint256",
          "name": "nullifierHash",
          "type": "uint256"
        },
        {
          "internalType": "uint256[8]",
          "name": "proof",
          "type": "uint256[8]"
        }
      ],
      "name": "greet",
      "outputs": [],
      "stateMutability": "nonpayable",
      "type": "function"
    },
    {
      "inputs": [
        {
          "internalType": "uint256",
          "name": "identityCommitment",
          "type": "uint256"
        },
        {
          "internalType": "bytes32",
          "name": "username",
          "type": "bytes32"
        }
      ],
      "name": "joinGroup",
      "outputs": [],
      "stateMutability": "nonpayable",
      "type": "function"
    },
    {
      "inputs": [],
      "name": "semaphore",
      "outputs": [
        {
          "internalType": "contract ISemaphore",
          "name": "",
          "type": "address"
        }
      ],
      "stateMutability": "view",
      "type": "function"
    }
  ],
  "bytecode": "0x608060405234801561001057600080fd5b506040516107ee3803806107ee8339818101604052810190610032919061013f565b816000806101000a81548173ffffffffffffffffffffffffffffffffffffffff021916908373ffffffffffffffffffffffffffffffffffffffff1602179055508060018190555060008054906101000a900473ffffffffffffffffffffffffffffffffffffffff1673ffffffffffffffffffffffffffffffffffffffff1663059f1bb560015460146000306040518563ffffffff1660e01b81526004016100dc94939291906101b7565b600060405180830381600087803b1580156100f657600080fd5b505af115801561010a573d6000803e3d6000fd5b50505050505061028a565b6000815190506101248161025c565b92915050565b60008151905061013981610273565b92915050565b6000806040838503121561015257600080fd5b600061016085828601610115565b92505060206101718582860161012a565b9150509250929050565b610184816101fc565b82525050565b61019381610238565b82525050565b6101a28161024a565b82525050565b6101b18161022e565b82525050565b60006080820190506101cc60008301876101a8565b6101d96020830186610199565b6101e6604083018561018a565b6101f3606083018461017b565b95945050505050565b60006102078261020e565b9050919050565b600073ffffffffffffffffffffffffffffffffffffffff82169050919050565b6000819050919050565b60006102438261022e565b9050919050565b60006102558261022e565b9050919050565b610265816101fc565b811461027057600080fd5b50565b61027c8161022e565b811461028757600080fd5b50565b610555806102996000396000f3fe608060405234801561001057600080fd5b50600436106100415760003560e01c80637b5d253414610046578063a3867d9114610064578063a3a8e3c514610080575b600080fd5b61004e61009c565b60405161005b91906103bb565b60405180910390f35b61007e60048036038101906100799190610326565b6100c0565b005b61009a600480360381019061009591906102c2565b6101a4565b005b60008054906101000a900473ffffffffffffffffffffffffffffffffffffffff1681565b60008054906101000a900473ffffffffffffffffffffffffffffffffffffffff1673ffffffffffffffffffffffffffffffffffffffff16631783efc3600154846040518363ffffffff1660e01b815260040161011d9291906103ff565b600060405180830381600087803b15801561013757600080fd5b505af115801561014b573d6000803e3d6000fd5b505050508060026000848152602001908152602001600020819055507fa50a3b4d29437818306d1859dff6fb2b1884a4f487bd1d91a8cc026ac4c9453782826040516101989291906103d6565b60405180910390a15050565b60008054906101000a900473ffffffffffffffffffffffffffffffffffffffff1673ffffffffffffffffffffffffffffffffffffffff16638b69310a600154858786600154876040518763ffffffff1660e01b815260040161020b96959493929190610428565b600060405180830381600087803b15801561022557600080fd5b505af1158015610239573d6000803e3d6000fd5b505050507fdca4fe235351d51f8e3444599c9a1afc6d12397dcdc4fd5df11bb6cfe0eb5a778460405161026c91906103a0565b60405180910390a150505050565b60008190508260206008028201111561029257600080fd5b92915050565b6000813590506102a7816104f1565b92915050565b6000813590506102bc81610508565b92915050565b60008060008061016085870312156102d957600080fd5b60006102e787828801610298565b94505060206102f8878288016102ad565b9350506040610309878288016102ad565b925050606061031a8782880161027a565b91505092959194509250565b6000806040838503121561033957600080fd5b6000610347858286016102ad565b925050602061035885828601610298565b9150509250929050565b61036f61010083836104e2565b5050565b61037c8161048a565b82525050565b61038b816104be565b82525050565b61039a816104b4565b82525050565b60006020820190506103b56000830184610373565b92915050565b60006020820190506103d06000830184610382565b92915050565b60006040820190506103eb6000830185610391565b6103f86020830184610373565b9392505050565b60006040820190506104146000830185610391565b6104216020830184610391565b9392505050565b60006101a08201905061043e6000830189610391565b61044b6020830188610391565b6104586040830187610373565b6104656060830186610391565b6104726080830185610391565b61047f60a0830184610362565b979650505050505050565b6000819050919050565b600073ffffffffffffffffffffffffffffffffffffffff82169050919050565b6000819050919050565b60006104c9826104d0565b9050919050565b60006104db82610494565b9050919050565b82818337600083830152505050565b6104fa8161048a565b811461050557600080fd5b50565b610511816104b4565b811461051c57600080fd5b5056fea264697066735822122085d522a12a3c96de96100d4a09c8070d1e8234a3c13cf544091cd140e9bc25d964736f6c63430008040033",
  "linkReferences": {},
  "deployedLinkReferences": {}
}